{
  "contractName": "RPS",
  "abi": [
    {
      "inputs": [],
      "stateMutability": "nonpayable",
      "type": "constructor"
    },
    {
      "inputs": [
        {
          "internalType": "uint256",
          "name": "",
          "type": "uint256"
        }
      ],
      "name": "games",
      "outputs": [
        {
          "internalType": "uint256",
          "name": "id",
          "type": "uint256"
        },
        {
          "internalType": "uint256",
          "name": "bet",
          "type": "uint256"
        },
        {
          "internalType": "address",
          "name": "creator",
          "type": "address"
        },
        {
          "internalType": "enum RPS.State",
          "name": "state",
          "type": "uint8"
        }
      ],
      "stateMutability": "view",
      "type": "function",
      "constant": true
    },
    {
      "inputs": [
        {
          "internalType": "uint256",
          "name": "",
          "type": "uint256"
        },
        {
          "internalType": "address",
          "name": "",
          "type": "address"
        }
      ],
      "name": "moves",
      "outputs": [
        {
          "internalType": "bytes32",
          "name": "hash",
          "type": "bytes32"
        },
        {
          "internalType": "uint256",
          "name": "value",
          "type": "uint256"
        }
      ],
      "stateMutability": "view",
      "type": "function",
      "constant": true
    },
    {
      "inputs": [
        {
          "internalType": "uint256",
          "name": "",
          "type": "uint256"
        }
      ],
      "name": "winningMoves",
      "outputs": [
        {
          "internalType": "uint256",
          "name": "",
          "type": "uint256"
        }
      ],
      "stateMutability": "view",
      "type": "function",
      "constant": true
    },
    {
      "inputs": [
        {
          "internalType": "address payable",
          "name": "participant",
          "type": "address"
        }
      ],
      "name": "createGame",
      "outputs": [],
      "stateMutability": "payable",
      "type": "function",
      "payable": true
    },
    {
      "inputs": [
        {
          "internalType": "uint256",
          "name": "_gameId",
          "type": "uint256"
        }
      ],
      "name": "joinGame",
      "outputs": [],
      "stateMutability": "payable",
      "type": "function",
      "payable": true
    },
    {
      "inputs": [
        {
          "internalType": "uint256",
          "name": "_gameId",
          "type": "uint256"
        },
        {
          "internalType": "uint256",
          "name": "moveId",
          "type": "uint256"
        },
        {
          "internalType": "uint256",
          "name": "salt",
          "type": "uint256"
        }
      ],
      "name": "commitMove",
      "outputs": [],
      "stateMutability": "nonpayable",
      "type": "function"
    },
    {
      "inputs": [
        {
          "internalType": "uint256",
          "name": "_gameId",
          "type": "uint256"
        },
        {
          "internalType": "uint256",
          "name": "moveId",
          "type": "uint256"
        },
        {
          "internalType": "uint256",
          "name": "salt",
          "type": "uint256"
        }
      ],
      "name": "revealMove",
      "outputs": [],
      "stateMutability": "payable",
      "type": "function",
      "payable": true
    },
    {
      "inputs": [
        {
          "internalType": "uint256",
          "name": "_gameId",
          "type": "uint256"
        }
      ],
      "name": "getBet",
      "outputs": [
        {
          "internalType": "uint256",
          "name": "",
          "type": "uint256"
        }
      ],
      "stateMutability": "view",
      "type": "function",
      "constant": true
    },
    {
      "inputs": [
        {
          "internalType": "uint256",
          "name": "_gameId",
          "type": "uint256"
        }
      ],
      "name": "getCreator",
      "outputs": [
        {
          "internalType": "address",
          "name": "",
          "type": "address"
        }
      ],
      "stateMutability": "view",
      "type": "function",
      "constant": true
    }
  ],
  "bytecode": "0x608060405234801561001057600080fd5b506002600360006001815260200190815260200160002081905550600380600060028152602001908152602001600020819055506001600360006003815260200190815260200160002081905550611c168061006d6000396000f3fe6080604052600436106100865760003560e01c8063354fe54a11610059578063354fe54a1461016f578063474d0b5a1461018b5780634b4cbb45146101a7578063d48e638a146101e4578063efaa55a01461022157610086565b8063061e494f1461008b578063117a5b90146100c857806322337a881461010857806334d3ce4b14610146575b600080fd5b34801561009757600080fd5b506100b260048036038101906100ad9190611352565b61023d565b6040516100bf919061138e565b60405180910390f35b3480156100d457600080fd5b506100ef60048036038101906100ea9190611352565b610262565b6040516100ff9493929190611461565b60405180910390f35b34801561011457600080fd5b5061012f600480360381019061012a91906114d2565b6102bf565b60405161013d92919061152b565b60405180910390f35b34801561015257600080fd5b5061016d60048036038101906101689190611554565b6102f0565b005b61018960048036038101906101849190611554565b61071a565b005b6101a560048036038101906101a091906115e5565b610d9f565b005b3480156101b357600080fd5b506101ce60048036038101906101c99190611352565b610ffa565b6040516101db919061138e565b60405180910390f35b3480156101f057600080fd5b5061020b60048036038101906102069190611352565b611012565b6040516102189190611612565b60405180910390f35b61023b60048036038101906102369190611352565b611057565b005b6000806001600084815260200190815260200160002090508060010154915050919050565b60016020528060005260406000206000915090508060000154908060010154908060020160009054906101000a900473ffffffffffffffffffffffffffffffffffffffff16908060040160009054906101000a900460ff16905084565b6002602052816000526040600020602052806000526040600020600091509150508060000154908060010154905082565b60006001600085815260200190815260200160002090506001600381111561031b5761031a6113ea565b5b8160040160009054906101000a900460ff16600381111561033f5761033e6113ea565b5b1461037f576040517f08c379a00000000000000000000000000000000000000000000000000000000081526004016103769061168a565b60405180910390fd5b3373ffffffffffffffffffffffffffffffffffffffff16816003016000815481106103ad576103ac6116aa565b5b9060005260206000200160009054906101000a900473ffffffffffffffffffffffffffffffffffffffff1673ffffffffffffffffffffffffffffffffffffffff16148061046657503373ffffffffffffffffffffffffffffffffffffffff1681600301600181548110610423576104226116aa565b5b9060005260206000200160009054906101000a900473ffffffffffffffffffffffffffffffffffffffff1673ffffffffffffffffffffffffffffffffffffffff16145b6104a5576040517f08c379a000000000000000000000000000000000000000000000000000000000815260040161049c90611725565b60405180910390fd5b60018314806104b45750600283145b806104bf5750600383145b6104fe576040517f08c379a00000000000000000000000000000000000000000000000000000000081526004016104f590611791565b60405180910390fd5b6040518060400160405280848460405160200161051c9291906117d2565b60405160208183030381529060405280519060200120815260200160008152506002600086815260200190815260200160002060003373ffffffffffffffffffffffffffffffffffffffff1673ffffffffffffffffffffffffffffffffffffffff16815260200190815260200160002060008201518160000155602082015181600101559050506000801b600260008681526020019081526020016000206000836003016000815481106105d3576105d26116aa565b5b9060005260206000200160009054906101000a900473ffffffffffffffffffffffffffffffffffffffff1673ffffffffffffffffffffffffffffffffffffffff1673ffffffffffffffffffffffffffffffffffffffff16815260200190815260200160002060000154141580156106e157506000801b60026000868152602001908152602001600020600083600301600181548110610675576106746116aa565b5b9060005260206000200160009054906101000a900473ffffffffffffffffffffffffffffffffffffffff1673ffffffffffffffffffffffffffffffffffffffff1673ffffffffffffffffffffffffffffffffffffffff1681526020019081526020016000206000015414155b156107145760028160040160006101000a81548160ff0219169083600381111561070e5761070d6113ea565b5b02179055505b50505050565b600060016000858152602001908152602001600020905060006002600086815260200190815260200160002060008360030160008154811061075f5761075e6116aa565b5b9060005260206000200160009054906101000a900473ffffffffffffffffffffffffffffffffffffffff1673ffffffffffffffffffffffffffffffffffffffff1673ffffffffffffffffffffffffffffffffffffffff16815260200190815260200160002090506000600260008781526020019081526020016000206000846003016001815481106107f4576107f36116aa565b5b9060005260206000200160009054906101000a900473ffffffffffffffffffffffffffffffffffffffff1673ffffffffffffffffffffffffffffffffffffffff1673ffffffffffffffffffffffffffffffffffffffff168152602001908152602001600020905060006002600088815260200190815260200160002060003373ffffffffffffffffffffffffffffffffffffffff1673ffffffffffffffffffffffffffffffffffffffff1681526020019081526020016000209050600260038111156108c3576108c26113ea565b5b8460040160009054906101000a900460ff1660038111156108e7576108e66113ea565b5b14610927576040517f08c379a000000000000000000000000000000000000000000000000000000000815260040161091e9061184a565b60405180910390fd5b3373ffffffffffffffffffffffffffffffffffffffff1684600301600081548110610955576109546116aa565b5b9060005260206000200160009054906101000a900473ffffffffffffffffffffffffffffffffffffffff1673ffffffffffffffffffffffffffffffffffffffff161480610a0e57503373ffffffffffffffffffffffffffffffffffffffff16846003016001815481106109cb576109ca6116aa565b5b9060005260206000200160009054906101000a900473ffffffffffffffffffffffffffffffffffffffff1673ffffffffffffffffffffffffffffffffffffffff16145b610a4d576040517f08c379a0000000000000000000000000000000000000000000000000000000008152600401610a4490611725565b60405180910390fd5b8585604051602001610a609291906117d2565b60405160208183030381529060405280519060200120816000015414610abb576040517f08c379a0000000000000000000000000000000000000000000000000000000008152600401610ab2906118dc565b60405180910390fd5b8581600101819055506000836001015414158015610ade57506000826001015414155b15610d95578160010154836001015403610c4c5783600301600081548110610b0957610b086116aa565b5b9060005260206000200160009054906101000a900473ffffffffffffffffffffffffffffffffffffffff1673ffffffffffffffffffffffffffffffffffffffff166108fc85600101549081150290604051600060405180830381858888f19350505050158015610b7d573d6000803e3d6000fd5b5083600301600181548110610b9557610b946116aa565b5b9060005260206000200160009054906101000a900473ffffffffffffffffffffffffffffffffffffffff1673ffffffffffffffffffffffffffffffffffffffff166108fc85600101549081150290604051600060405180830381858888f19350505050158015610c09573d6000803e3d6000fd5b50600380811115610c1d57610c1c6113ea565b5b8460040160009054906101000a900460ff166003811115610c4157610c406113ea565b5b505050505050610d9a565b600060036000846001015481526020019081526020016000205460036000866001015481526020019081526020016000205414610cca5784600301600181548110610c9a57610c996116aa565b5b9060005260206000200160009054906101000a900473ffffffffffffffffffffffffffffffffffffffff16610d0d565b84600301600081548110610ce157610ce06116aa565b5b9060005260206000200160009054906101000a900473ffffffffffffffffffffffffffffffffffffffff165b90508073ffffffffffffffffffffffffffffffffffffffff166108fc86600101546002610d3a919061192b565b9081150290604051600060405180830381858888f19350505050158015610d65573d6000803e3d6000fd5b5060038560040160006101000a81548160ff02191690836003811115610d8e57610d8d6113ea565b5b0217905550505b505050505b505050565b60003411610de2576040517f08c379a0000000000000000000000000000000000000000000000000000000008152600401610dd9906119d1565b60405180910390fd5b6000600267ffffffffffffffff811115610dff57610dfe6119f1565b5b604051908082528060200260200182016040528015610e2d5781602001602082028036833780820191505090505b5090503381600081518110610e4557610e446116aa565b5b602002602001019073ffffffffffffffffffffffffffffffffffffffff16908173ffffffffffffffffffffffffffffffffffffffff16815250508181600181518110610e9457610e936116aa565b5b602002602001019073ffffffffffffffffffffffffffffffffffffffff16908173ffffffffffffffffffffffffffffffffffffffff16815250506040518060a0016040528060005481526020013481526020013373ffffffffffffffffffffffffffffffffffffffff16815260200182815260200160006003811115610f1d57610f1c6113ea565b5b8152506001600080548152602001908152602001600020600082015181600001556020820151816001015560408201518160020160006101000a81548173ffffffffffffffffffffffffffffffffffffffff021916908373ffffffffffffffffffffffffffffffffffffffff1602179055506060820151816003019080519060200190610fab929190611270565b5060808201518160040160006101000a81548160ff02191690836003811115610fd757610fd66113ea565b5b0217905550905050600080815480929190610ff190611a20565b91905055505050565b60036020528060005260406000206000915090505481565b6000806001600084815260200190815260200160002090508060020160009054906101000a900473ffffffffffffffffffffffffffffffffffffffff16915050919050565b60006001600083815260200190815260200160002090503373ffffffffffffffffffffffffffffffffffffffff168160030160018154811061109c5761109b6116aa565b5b9060005260206000200160009054906101000a900473ffffffffffffffffffffffffffffffffffffffff1673ffffffffffffffffffffffffffffffffffffffff161461111d576040517f08c379a000000000000000000000000000000000000000000000000000000000815260040161111490611ab4565b60405180910390fd5b8060010154341015611164576040517f08c379a000000000000000000000000000000000000000000000000000000000815260040161115b90611b20565b60405180910390fd5b60006003811115611178576111776113ea565b5b8160040160009054906101000a900460ff16600381111561119c5761119b6113ea565b5b146111dc576040517f08c379a00000000000000000000000000000000000000000000000000000000081526004016111d390611b8c565b60405180910390fd5b806001015434111561123f573373ffffffffffffffffffffffffffffffffffffffff166108fc8260010154346112129190611bac565b9081150290604051600060405180830381858888f1935050505015801561123d573d6000803e3d6000fd5b505b60018160040160006101000a81548160ff02191690836003811115611267576112666113ea565b5b02179055505050565b8280548282559060005260206000209081019282156112e9579160200282015b828111156112e85782518260006101000a81548173ffffffffffffffffffffffffffffffffffffffff021916908373ffffffffffffffffffffffffffffffffffffffff16021790555091602001919060010190611290565b5b5090506112f691906112fa565b5090565b5b808211156113135760008160009055506001016112fb565b5090565b600080fd5b6000819050919050565b61132f8161131c565b811461133a57600080fd5b50565b60008135905061134c81611326565b92915050565b60006020828403121561136857611367611317565b5b60006113768482850161133d565b91505092915050565b6113888161131c565b82525050565b60006020820190506113a3600083018461137f565b92915050565b600073ffffffffffffffffffffffffffffffffffffffff82169050919050565b60006113d4826113a9565b9050919050565b6113e4816113c9565b82525050565b7f4e487b7100000000000000000000000000000000000000000000000000000000600052602160045260246000fd5b6004811061142a576114296113ea565b5b50565b600081905061143b82611419565b919050565b600061144b8261142d565b9050919050565b61145b81611440565b82525050565b6000608082019050611476600083018761137f565b611483602083018661137f565b61149060408301856113db565b61149d6060830184611452565b95945050505050565b6114af816113c9565b81146114ba57600080fd5b50565b6000813590506114cc816114a6565b92915050565b600080604083850312156114e9576114e8611317565b5b60006114f78582860161133d565b9250506020611508858286016114bd565b9150509250929050565b6000819050919050565b61152581611512565b82525050565b6000604082019050611540600083018561151c565b61154d602083018461137f565b9392505050565b60008060006060848603121561156d5761156c611317565b5b600061157b8682870161133d565b935050602061158c8682870161133d565b925050604061159d8682870161133d565b9150509250925092565b60006115b2826113a9565b9050919050565b6115c2816115a7565b81146115cd57600080fd5b50565b6000813590506115df816115b9565b92915050565b6000602082840312156115fb576115fa611317565b5b6000611609848285016115d0565b91505092915050565b600060208201905061162760008301846113db565b92915050565b600082825260208201905092915050565b7f706c6179657273206d757374206a6f696e6564207468652067616d6500000000600082015250565b6000611674601c8361162d565b915061167f8261163e565b602082019050919050565b600060208201905081810360008301526116a381611667565b9050919050565b7f4e487b7100000000000000000000000000000000000000000000000000000000600052603260045260246000fd5b7f706c6179657273206d757374206265206d73672e73656e646572000000000000600082015250565b600061170f601a8361162d565b915061171a826116d9565b602082019050919050565b6000602082019050818103600083015261173e81611702565b9050919050565b7f6d6f7665206964206d7573742062652065697468657220312c32206f72203300600082015250565b600061177b601f8361162d565b915061178682611745565b602082019050919050565b600060208201905081810360008301526117aa8161176e565b9050919050565b6000819050919050565b6117cc6117c78261131c565b6117b1565b82525050565b60006117de82856117bb565b6020820191506117ee82846117bb565b6020820191508190509392505050565b7f706c6179657273206d75737420636f6d6d6974656420746865206d6f76657300600082015250565b6000611834601f8361162d565b915061183f826117fe565b602082019050919050565b6000602082019050818103600083015261186381611827565b9050919050565b7f6d6f766564496420646f6573206e6f74206d617463682074686520636f6d6d6960008201527f746d656e74000000000000000000000000000000000000000000000000000000602082015250565b60006118c660258361162d565b91506118d18261186a565b604082019050919050565b600060208201905081810360008301526118f5816118b9565b9050919050565b7f4e487b7100000000000000000000000000000000000000000000000000000000600052601160045260246000fd5b60006119368261131c565b91506119418361131c565b9250817fffffffffffffffffffffffffffffffffffffffffffffffffffffffffffffffff048311821515161561197a576119796118fc565b5b828202905092915050565b7f6e65656420736f6d6520657468657220746f2073656e64000000000000000000600082015250565b60006119bb60178361162d565b91506119c682611985565b602082019050919050565b600060208201905081810360008301526119ea816119ae565b9050919050565b7f4e487b7100000000000000000000000000000000000000000000000000000000600052604160045260246000fd5b6000611a2b8261131c565b91507fffffffffffffffffffffffffffffffffffffffffffffffffffffffffffffffff8203611a5d57611a5c6118fc565b5b600182019050919050565b7f73656e646572206d757374206265206d73672e73656e64657200000000000000600082015250565b6000611a9e60198361162d565b9150611aa982611a68565b602082019050919050565b60006020820190508181036000830152611acd81611a91565b9050919050565b7f6e65656420746f206265206d756368206d6f7265207468616e20626574000000600082015250565b6000611b0a601d8361162d565b9150611b1582611ad4565b602082019050919050565b60006020820190508181036000830152611b3981611afd565b9050919050565b7f67616d65206d7573742062652063726561746564206265666f72650000000000600082015250565b6000611b76601b8361162d565b9150611b8182611b40565b602082019050919050565b60006020820190508181036000830152611ba581611b69565b9050919050565b6000611bb78261131c565b9150611bc28361131c565b925082821015611bd557611bd46118fc565b5b82820390509291505056fea2646970667358221220800aff0827b9cf7e9e09740bd47382f068f4fd9ace25d61237a918a27f0c185364736f6c634300080d0033",
  "immutableReferences": {},
  "source": "// SPDX-License-Identifier: MIT\r\npragma solidity >= 0.8.0;\r\n\r\ncontract RPS {\r\n    enum State {\r\n        CREATED,\r\n        JOINED,\r\n        COMMITED,\r\n        REVEALED\r\n    }\r\n    struct Game {\r\n        uint id;\r\n        uint bet;\r\n        address creator;\r\n        address payable [] players;\r\n        State state;\r\n    }\r\n    struct Move {\r\n        bytes32 hash;\r\n        uint value;\r\n    }\r\n    uint gameId;\r\n    mapping (uint => Game) public games;\r\n    mapping (uint => mapping (address => Move)) public moves;\r\n    mapping (uint => uint) public winningMoves;\r\n\r\n    constructor () {\r\n        //1 rock\r\n        //2 paper\r\n        //3 scissors\r\n        winningMoves[1] = 2;\r\n        winningMoves[2] = 3;\r\n        winningMoves[3] = 1;\r\n    }\r\n\r\n    function createGame(address payable participant) \r\n        external\r\n        payable\r\n        {\r\n            require(msg.value > 0, \"need some ether to send\");\r\n            address payable[] memory players = new address payable [] (2);\r\n            players[0] = payable (msg.sender);\r\n            players[1] = participant;\r\n            \r\n            games[gameId] = Game(\r\n                gameId,\r\n                msg.value,\r\n                msg.sender,\r\n                players,\r\n                State.CREATED\r\n            );\r\n            gameId++;\r\n    }\r\n\r\n    function joinGame (uint _gameId)\r\n        external\r\n        payable\r\n        {\r\n            Game storage game = games[_gameId];\r\n            require(game.players[1] == msg.sender, \"sender must be msg.sender\");\r\n            require(msg.value >= game.bet, \"need to be much more than bet\");\r\n            require(game.state == State.CREATED, \"game must be created before\");\r\n            if(msg.value > game.bet){\r\n                payable (msg.sender).transfer(msg.value - game.bet);\r\n            }\r\n            game.state = State.JOINED;\r\n    }\r\n\r\n    function commitMove (uint _gameId, uint moveId, uint salt)\r\n        external\r\n        {\r\n            Game storage game = games[_gameId];\r\n            require(game.state == State.JOINED, \"players must joined the game\");\r\n            require(game.players[0] == msg.sender || game.players[1] == msg.sender, \"players must be msg.sender\");\r\n            require(moveId == 1 || moveId == 2 || moveId == 3, \"move id must be either 1,2 or 3\");\r\n            moves[_gameId][msg.sender] = Move(keccak256(abi.encodePacked(moveId, salt)), 0);\r\n            if(\r\n                moves[_gameId][game.players[0]].hash != 0\r\n                && \r\n                moves[_gameId][game.players[1]].hash != 0\r\n            )\r\n            {\r\n                game.state = State.COMMITED;\r\n            }\r\n    }\r\n\r\n    function revealMove (uint _gameId, uint moveId, uint salt) \r\n        external\r\n        payable\r\n        {\r\n            Game storage game = games[_gameId];\r\n            Move storage move1 = moves[_gameId][game.players[0]];\r\n            Move storage move2 = moves[_gameId][game.players[1]];\r\n            Move storage moveSender = moves[_gameId][msg.sender];\r\n            require(game.state == State.COMMITED, \"players must commited the moves\");\r\n            require(game.players[0] == msg.sender || game.players[1] == msg.sender, \"players must be msg.sender\");\r\n            require(moveSender.hash == keccak256(abi.encodePacked(moveId, salt)), \"movedId does not match the commitment\");\r\n            moveSender.value = moveId;\r\n\r\n            if(\r\n                move1.value != 0 && move2.value != 0\r\n            )\r\n            {\r\n                if(move1.value == move2.value){\r\n                    game.players[0].transfer(game.bet);\r\n                    game.players[1].transfer(game.bet);\r\n                    game.state == State.REVEALED;\r\n                    return;\r\n                }\r\n                address payable winner;\r\n                winner = winningMoves[move1.value] == winningMoves[move2.value] ? game.players[0] : game.players[1];\r\n                winner.transfer(2 * game.bet);\r\n                game.state = State.REVEALED;\r\n            }\r\n    }\r\n\r\n\r\n/**\r\n * @dev get functions for getting better to track the game status\r\n */\r\n\r\n    function getBet(uint _gameId) public view returns (uint) {\r\n        Game storage game = games[_gameId];\r\n        return game.bet;\r\n    }\r\n\r\n    function getCreator(uint _gameId) public view returns(address) {\r\n        Game storage game = games[_gameId];\r\n        return game.creator;\r\n    }\r\n\r\n}",
  "sourcePath": "E:\\Coding\\Web3\\Web3 master\\RPS\\contracts\\Rps.sol",
  "compiler": {
    "name": "solc",
    "version": "0.8.13+commit.abaa5c0e.Emscripten.clang"
  },
  "schemaVersion": "3.4.16",
  "updatedAt": "2025-01-05T09:58:12.321Z",
  "networkType": "ethereum",
  "devdoc": {
    "kind": "dev",
    "methods": {
      "getBet(uint256)": {
        "details": "get functions for getting better to track the game status"
      }
    },
    "version": 1
  },
  "userdoc": {
    "kind": "user",
    "methods": {},
    "version": 1
  }
}